:100000000C944D010C9475010C9475010C947501C0
:100010000C9475010C9475010C9475010C94750188
:100020000C9475010C9475010C94E6110C946312F8
:100030000C9475010C9475010C9475010C94750168
:100040000C9475010C9475010C9475010C94750158
:100050000C9475010C9475010C9475010C949C1111
:100060000C9475010C9475010C9475010C94750138
:100070000C9475010C9475010C9475010C94750128
:100080000C9475010C9475010C9475010C94750118
:100090000C9475010C9475010C9475010C94750108
:1000A0000C9475010C9475010C947501546F6F4498
:1000B000656570004E6F4D656D6F727900496E76A3
:1000C000616C6964496E70757400496E636F6D7020
:1000D0006C657465496E70757400456D707479490E
:1000E0006E707574004F6B00000020410000C84224
:1000F00000401C4620BCBE4CCA1B0E5AAEC59D74A7
:10010000CDCCCC3D0AD7233C17B7D13877CC2B3296
:100110009595E6241FB14F0AE500DA00CA00BD003C
:10012000B400AC00646573657269616C697A654A94
:10013000736F6E2829206661696C65643A20000837
:100140000B0002020200000904000001020200008C
:1001500005240010010524010101042402060524E0
:100160000600010705810310004009040100020A8E
:10017000000000070502024000000705830240005E
:10018000000403090412010002EF0201407613711A
:1001900082000101020301556E6B6E6F776E004B9A
:1001A0006579626F6172644D6F757365436F6D62DF
:1001B0006F0005010902A1010901A10085010509DE
:1001C0001901290315002501950375018102950187
:1001D0007505810305010930093109381581257F2D
:1001E000750895038106C0C00000000000000000F3
:1001F0002A2B280000000000000000000000000082
:1002000000000000000000002C9EB4A0A1A2A434B5
:10021000A6A7A5AE362D3738271E1F20212223245E
:100220002526B333B62EB7B89F8485868788898AFA
:100230008B8C8D8E8F909192939495969798999A96
:100240009B9C9D2F3130A3AD350405060708090A94
:100250000B0C0D0E0F101112131415161718191A76
:100260001B1C1DAFB1B0B50005010906A101850237
:10027000050719E029E71500250175019508810298
:100280009501750881039506750815002573050706
:10029000190029738100C000C81411241FBECFEFBC
:1002A000DAE0DEBFCDBF22E0ACE2B2E001C01D92D9
:1002B000A33EB207E1F712E0A0E0B1E0E4ECF3E323
:1002C00002C005900D92AC32B107D9F711E0CDE430
:1002D000D1E004C02197FE010E94DF17CC34D10782
:1002E000C9F70E9466150C94E0190C94000083E095
:1002F0008093E9008091F200882319F08AE38093CB
:10030000E8000895FC0180915F02882311F13FB756
:10031000F89482E08093E9002091F200822F90E02F
:100320001816190614F481E090E0882339F0289813
:1003300044E640935E024091F1004083222339F06D
:100340002091F200211103C02BE62093E8003FBF6B
:1003500008958FEF9FEF08953FB7F89480915A0268
:1003600090915B02A0915C02B0915D0226B5A89BC2
:1003700005C02F3F19F00196A11DB11D3FBFBA2F37
:10038000A92F982F8827BC01CD01620F711D811DF7
:10039000911D42E0660F771F881F991F4A95D1F77C
:1003A0000895CF92DF92EF92FF920E94AC016B0111
:1003B0007C010E94AC016C197D098E099F09683E81
:1003C000734081059105A8F3FF90EF90DF90CF90E7
:1003D000089540915302509154022091510230915E
:1003E000520242175307B4F49091E8009570E1F37C
:1003F0009091E80092FD19C08093F1008091530222
:100400009091540201968F739927892B19F48EEFDE
:100410008093E8008091530290915402019690934A
:1004200054028093530281E0089580E00895DF92A2
:10043000EF92FF920F931F93CF93DF93D82E8A01F1
:10044000EB017B01E40EF51ECE15DF0559F0D7FE5A
:1004500012C0FE0184910E94E90121968111F4CF1E
:100460000FEF1FEFC801DF91CF911F910F91FF9008
:10047000EF90DF9008958881EECF2FB7F8948770C2
:100480008093E9009091E800892F807295FF04C065
:100490009091F20080E4891B2FBF08957F928F9284
:1004A0009F92AF92BF92CF92DF92EF92FF920F9303
:1004B0001F93CF93DF93C82E8B017A0180915F0247
:1004C000811110C08FEF9FEFDF91CF911F910F919E
:1004D000FF90EF90DF90CF90BF90AF909F908F9064
:1004E0007F9008958091570280FF05C08091E000C1
:1004F00082608093E000CE2DDF2DD12C8AEFB82EC4
:100500008C2D8770982E8C2D8072882E8C2D807467
:10051000782E9AE3A92E209719F4DD2009F44EC015
:100520008C2D0E943D02811106C0BA94BB2051F26D
:100530000E94D101F0CF8C171D0611F00CF08C2F0A
:100540009FB7F8949092E9002091E80025FD02C041
:100550009FBFE1CF282F30E0C21BD30B882029F0AA
:100560008150A0F01092F100FBCFF801C7FC0AC047
:10057000815050F041914093F100FACF4491409363
:10058000F10031968150D0F7020F131FDD2021F0CA
:10059000A092E800D12CDCCF8091E80085FD07C057
:1005A000A092E800DD24D394209791F2F3CF209716
:1005B00079F6772069F2A092E800CACF5D9884E6C8
:1005C00080935602C70180CF615030F02091F10036
:1005D000FC0120830196F8CF289884E680935E0280
:1005E00008958091490281110DC082E080934502F7
:1005F00084E080934602109248021092470281E004
:100600008093490285E492E008950F931F93CF935E
:10061000DF931F92CDB7DEB782E0898342E450E0DA
:100620006FE371E080E80E9417020E94F102DC0192
:1006300012960D911C910115110589F0D801ED91CB
:10064000FC910280F381E02DBE016F5F7F4FC801F6
:10065000099597FD04C0F80100851185ECCF8981CB
:100660000F90DF91CF911F910F910895CF93DF935A
:10067000EC0180911201882331F083E00E944E0248
:100680001816190634F081E090E09B838A8380E09D
:1006900090E0DF91CF910895CF93DF931F92CDB774
:1006A000DEB76983DC01ED91FC910280F381E02DDE
:1006B00041E050E0BE016F5F7F4F09950F90DF91E1
:1006C000CF9108950F931F93CF93DF938C01D0E0C8
:1006D000C0E0F801EC0FFD1F6491662341F084E651
:1006E00092E00E944C03892B11F02196F2CFCE01AB
:1006F000DF91CF911F910F9108950C94770183E0C2
:100700000E943D0290E00895CF93DF931F92CDB7F2
:10071000DEB7FC018485958597FD08C02FEF3FEF7C
:10072000358724870F90DF91CF910895CE010196F0
:100730000E948201019719F4898190E0F3CF8FEF35
:100740009FEFF0CF2FB7F8948091600290916102F3
:10075000A0916202B09163022FBF80936C029093CC
:100760006D02A0936E02B0936F0284E692E00E9445
:10077000840397FF26C02FB7F89480916002909170
:100780006102A0916202B09163022FBF40916C029E
:1007900050916D0260916E0270916F02841B950BF7
:1007A000A60BB70B409168025091690260916A02F2
:1007B00070916B0284179507A607B707B0F28FEF09
:1007C0009FEF08950F931F93CF93DF931F92CDB7A1
:1007D000DEB78C01FC018485958597FF0BC0CE01A7
:1007E00001960E948201019771F4898190E0F801DD
:1007F00095878487F801848595850F90DF91CF9147
:100800001F910F9108958FEF9FEFF1CFFC01848529
:10081000958597FD0BC09FB7F89482E08093E9001F
:100820008091F2009FBF90E0019608959FB7F894E1
:1008300082E08093E9008091F2009FBF90E00895EC
:10084000DC01FB0112962C91129784819581281767
:10085000190641F491818081813A31F49D7F81E0D4
:10086000913009F080E008958132E1F79B3029F45E
:1008700082811F968C9381E008959A3099F7828146
:1008800050968C93F8CFAF92BF92CF92DF92EF92B7
:10089000FF920F931F93CF93DF931F92CDB7DEB7D5
:1008A0007C0169836A01590141E050E0BE016F5F3C
:1008B0007F4FFC0183810E944E028C0197FD0BC08B
:1008C000F7018381A501B60180640E944E02080FE2
:1008D000191F97FD8C01C8010F90DF91CF911F91D7
:1008E0000F91FF90EF90DF90CF90BF90AF90089561
:1008F000DC01FB0188E4808389E4818384E48283D2
:100900001D969C911D979F709F5B93831D968D9163
:100910009C9124E0969587952A95E1F78F708F5BDF
:10092000848385E00895EF92FF920F931F93CF93F6
:10093000DF93FB012081213871F52381223259F5A3
:10094000DC0112964C91248135814217130619F56A
:10095000EC010B851C85F12CE12C0115110589F0AA
:10096000F801448155816281738180E80E941702F9
:100970008F3F980749F0E80EF91ED8010D911C91A0
:10098000ECCF81E08F87C701DF91CF911F910F914D
:10099000FF90EF90089590E080E0F6CFCF93DF9343
:1009A000CDB7DEB769970FB6F894DEBF0FBECDBFE7
:1009B000FC01DB018C918F5F8C939E012D5F3F4F7B
:1009C0008DE0D9011D928A95E9F729E0298384E019
:1009D0008A8391E09D8383E08E832A8721E22B879F
:1009E0009C879D879F8722E2288B27E02B8B25E021
:1009F0002C8B8E8B20E430E0388F2F8B998F828167
:100A00008B8395858685998B8A8B838180688D8B76
:100A100049E150E0BE016F5F7F4F80E00E94170206
:100A200069960FB6F894DEBF0FBECDBFDF91CF91B0
:100A30000895CF93DF9380913D02811167C081E0DB
:100A4000809330028093310226E332E03093330208
:100A50002093320210923502109234022DE131E0DF
:100A600030932D0220932C021092380210923702FC
:100A700010923A021092390280933B0280933C021A
:100A800081EC809336020E94F102FC0181819091F9
:100A90003002482F490F5527551F483051059CF506
:100AA000A281B381109709F52CE232E033832283CF
:100AB000208120932E0280932F0280913102820F99
:100AC000808320913202A22FB09133028A2F821BA1
:100AD0008917C8F481813D91C82FD0E0C050DF4F05
:100AE00038838F5F8183F2CFD90118962D913C9185
:100AF000199721153105C1F72CE232E019963C9384
:100B00002E931897D5CF81E080933D028CE292E03E
:100B1000DF91CF910895CF93DF9300D000D0CDB770
:100B2000DEB79091C20299838A836B831C820E94F4
:100B3000190524E030E0AE014F5F5F4F61E00E9495
:100B400043040F900F900F900F90DF91CF91089575
:100B50008093C20260E080E00E948B051092C20286
:100B600060E080E00C948B05CF92DF92EF92FF92D1
:100B70000F931F93CF93DF936C01EB017B01E40E86
:100B8000F51E10E000E0CE15DF0581F069916D30B3
:100B9000D1F3D601ED91FC910190F081E02DC601D9
:100BA0000995892B19F00F5F1F4FEDCFC801DF9119
:100BB000CF911F910F91FF90EF90DF90CF9008950C
:100BC000EF92FF921F93CF93DF93EC01162FE8E78C
:100BD000E60F683888F4862F90E067FF5CC0FC0160
:100BE000E058F10921E030E001C0220FEA95EAF770
:100BF0008C81822B8C83E0E08E818E17D9F08F81DF
:100C0000E817C1F08885E817A9F08985E81791F001
:100C10008A85E81779F08B85E81761F0DE01169672
:100C200090E080E02D9121116AC08C0F9D1FDC01A6
:100C30001696EC930E94190528E030E0AE014C5F57
:100C40005F4F62E00E944304EE24E394F12C1838D5
:100C500078F11858DE0186E0112341F016969C9138
:100C60001697191303C016961C9216978150119669
:100C70008111F2CF0E941905AE014C5F5F4F28E051
:100C800030E062E00E944304C701DF91CF911F91E1
:100C9000FF90EF900895EC85FD85E80FF91FE49132
:100CA000E11119C081E090E09B838A83F12CE12C53
:100CB000812F90E017FF2FC0FC01E058F10981E07F
:100CC00090E001C0880FEA95EAF780959C8189231E
:100CD0008C8310E0BFCF8E2F807C803C49F48C81C8
:100CE00080648C83EF73E23309F086CFE4E684CF2F
:100CF000E7FFF9CF8C8182608C83EF77F4CF019688
:100D00008630910509F08ECF81E090E09B838A8345
:100D1000F12CE12C9CCFEC85FD85E80FF91F149197
:100D2000112309F4B1CF812F807C803C49F48C8160
:100D30008F7B8C831F73123309F08CCF14E68ACF1C
:100D400017FFF9CF8C818D7F8C831F77F4CF0895A7
:100D500090E080E0089580339CF08A3324F08F3552
:100D600024F08B3724F481E0089581344CF08B35E6
:100D7000D4F393ED980F81E09230B0F380E00895C2
:100D80008B32B9F7F0CFFC018685811114C0A185A3
:100D9000B285838594852FEF3FEFA817B90730F40C
:100DA000CD010196928781872C9130E037FD20E0BC
:100DB000258781E08687858508951F93CF93DF93EC
:100DC000EC01162F0E94C306811306C01E8681E027
:100DD000DF91CF911F91089580E0FACFCF93DF93F9
:100DE000EC01CE010E94C3068B303CF489304CF4F8
:100DF000882349F081E0888710C08D3011F080325F
:100E0000C9F71E86EECF888581110AC081E090E087
:100E1000CF5ADF4F9983888380E0DF91CF91089587
:100E200082E090E0F5CF08950F931F93CF93DF9367
:100E3000DB0112962D913C91EC01E881F9818A81C8
:100E40009B81DF01A20FB31FA817B907A8F44C912B
:100E500041110EC0EB01A881B981EF018D01020F94
:100E6000131FA017B10751F05D9149915417C9F3B1
:100E700041914111FDCFE5CFF0E0E0E0CF01DF91FE
:100E8000CF911F910F910895EF92FF920F931F93AF
:100E9000CF93DF9300D000D0CDB7DEB749835A831C
:100EA0006B837C83042F152F0115110569F490E0E5
:100EB00080E00F900F900F900F90DF91CF911F91D6
:100EC0000F91FF90EF9008957C01BE016F5F7F4FFF
:100ED0000E941407009769F72B813C81F7018281FA
:100EE0009381A9014F5F5F4F480F591F648175813E
:100EF0006417750718F481E08087D9CF5383428344
:100F00000097A9F2F801DC01BF01620F731F6E1791
:100F10007F0719F041914D93FACF280F391FF9013E
:100F20001082C7CFFC0124813581A9014F5F5F4F3B
:100F3000868197814817590748F4828193815583A8
:100F40004483FC01E20FF31F608308950190F08158
:100F5000E02D81E0808708959F92AF92BF92CF925B
:100F6000DF92EF92FF920F931F93CF93DF9300D006
:100F700000D01F92CDB7DEB78C010E94C306D82ED9
:100F8000D8011E961C92F12CE12C60EFC62EC801F0
:100F90000E94C306F8011686D81609F4BDC0811157
:100FA00019C0F801EF5AFF4F82E090E091838083EF
:100FB00080E00F900F900F900F900F90DF91CF91E6
:100FC0001F910F91FF90EF90DF90CF90BF90AF9067
:100FD0009F9008958C3509F09DC0C8010E94C306FA
:100FE0008823F9F2E3E4F1E0853709F087C0D801FE
:100FF0001E961C9254E0952EB12CA12CC8010E9483
:10100000C306882371F281344CF48053803148F058
:10101000F801EF5AFF4F83E090E0C8CF8F7D8753F0
:10102000F5CF44E0AA0CBB1C4A95E1F7A82AF801C9
:1010300016869A949110E2CFC501985D811594406F
:1010400020F4750123E0F222A2CFC5019C5D811539
:101050009440A8F4B3E0BB22B701762F6627770F40
:10106000770F6A297B2990E080E00196603871054E
:101070008105910540F4C8010E94920788CFB5010F
:1010800090E080E0F3CF1982262F2F7320682A8307
:1010900026E096958795779567952A95D1F76032E2
:1010A000710580F4606C6B835E01E4E0AE0EB11CF0
:1010B000D5016E915D01662309F469CFC8010E94D4
:1010C0009207F6CF262F2F7320682B8386E0769524
:1010D00067958A95E1F76031710538F4606E6C832D
:1010E0005E01F5E0AF0EB11CE3CF60686C83CD828A
:1010F0005E0126E0A20EB11CDBCF329690819923CF
:1011000009F486CF8913F9CF8181882309F480CF30
:10111000F8011686682FAFCF0190F081E02D808511
:10112000882331F0F801EF5AFF4F84E090E03ECF82
:1011300081E03FCFCF93DF9300D000D000D0CDB778
:10114000DEB7FC0184818F77843039F0853091F0EF
:101150001A8219821C821B8208C08281938120819D
:1011600031813A8329839C838B8381E090E09E8345
:101170008D830AC082819381208131813A832983C2
:101180009C838B831E821D8229813A814B815C81E5
:101190006D817E8180E090E026960FB6F894DEBFE8
:1011A0000FBECDBFDF91CF9108954F925F926F92A6
:1011B0007F928F929F92AF92BF92CF92DF92EF92E7
:1011C000FF920F931F93CF93DF93EC018B018881E4
:1011D0008B32C9F18D32C1F52196FF24F3948881B9
:1011E00090ED980F9A3018F08E3209F04DC160E002
:1011F00070E0CB01FE012191A0ED8A2E820E39E034
:10120000381520F16A3949E97407840749E19407E0
:1012100038F5AAE0B0E09B01AC010E943117912C97
:10122000B12CA12C24013501409450946094709409
:10123000461657066806790698F0680D791D8A1DCE
:101240009B1DEF01D7CF2196F12CC9CF211108C0EA
:10125000FF20F1F161307105810550E89507A0F09C
:10126000E12CEAE08E2E912CA12CB12C6115710598
:10127000F0E88F079105C0F1A50194010E94BD1708
:10128000CA01B901E394F2CFF801248120782A60E1
:1012900024839B01AC0188279927DC01821B930BD7
:1012A000A40BB50B80839183A283B3838F2DDF9131
:1012B000CF911F910F91FF90EF90DF90CF90BF9053
:1012C000AF909F908F907F906F905F904F90089518
:1012D000F8012481207828602483608371838283CD
:1012E0009383FF24F394E2CFFE01299130ED320F76
:1012F0003A3010F4E394F8CF2E32F1F4EF01219656
:10130000FE012196208150EDD52ED20E29E02D151B
:1013100098F06C3C3CEC73073CE08307910580F748
:10132000AAE0B0E09B01AC010E9431176D0D711D68
:10133000811D911DEA94E4CF20812F7DD0E0C0E093
:10134000253409F05DC021812D32D9F53296CC24A7
:10135000C394DF01D0E0C0E02E2D0E2C000C330B27
:101360004AE0B42EFD01DD9040ED4D0D4A3008F00D
:1013700042C0BC9EA001BD9E500D1124CD2DDD0CA0
:10138000DD0BE097C40FD51FAE01420F531F47324C
:10139000510544F3F8018481CC20D1F040E050E0C5
:1013A00060E070E8F11003C040E050E0BA018078DE
:1013B0008C60F80184834083518362837383FC2CA7
:1013C00075CF2B3219F03196C12CC3CF3296FCCF9A
:1013D00040E050E060E87FEFF11004C040E050E0F2
:1013E00060E87FE780788C60F801848340835183D4
:1013F0006283738376CFCC2019F0D195C195D10942
:101400002081211141C0CE0DD11DE7FCDA950E944B
:1014100012161C161D0604F5E12CC0FF0CC024E0BA
:10142000E29EF0011124E851FF4F2591359145913D
:1014300054910E947316D595C795E394209769F748
:10144000F1109058F801248120782C602483608367
:1014500071838283938345CFD195C195D109E12CC6
:10146000209771F3C0FF0CC044E0E49EF00111240A
:10147000E050FF4F25913591459154910E9473168C
:10148000D595C795E394ECCFF12C10CFCF92DF9296
:10149000EF92FF92CF93DF9300D000D01F92CDB791
:1014A000DEB7FC01892B39F084818F778630B9F063
:1014B00028F4843088F590E080E013C08A30E9F0A9
:1014C0008C30B9F18830B9F780819181A281B381E4
:1014D000811520E89207A105B10568F702C0808157
:1014E00090E00F900F900F900F900F90DF91CF91A1
:1014F000FF90EF90DF90CF90089580819181A2813D
:10150000B381AC01BD0150586F4F7F4F411551055C
:101510006140710580F6E5CF808191811D82BE0119
:101520006F5F7F4F0E94D508CE0101960E94460A48
:10153000D8CFC080D180E280F38020E030E040E06E
:1015400057ECC701B6010E94B81787FDB4CF20E061
:101550003EEF4FEF56E4C701B6010E940D16181674
:101560000CF4A9CFC701B6010E948217CB01B9CFF5
:10157000CF93DF9300D000D000D0CDB7DEB7009777
:1015800079F00E949A0829833A8389819A81269664
:101590000FB6F894DEBF0FBECDBFDF91CF91089597
:1015A00090E080E0F4CFCF93DF93DC01EB01EC819E
:1015B000FD818A819B810896E817F90740F481E054
:1015C0008887F0E0E0E0CF01DF91CF910895389770
:1015D000FD83EC833097B9F31296CD91DC9113978C
:1015E000209791F0CF018C1B9D0B23E0959587955B
:1015F0002A95E1F78D831396FC93EE93129715824B
:10160000148217821682DFCF1196FC93EE93F3CFEC
:10161000CF92DF92EF92FF927C01FB01309721F095
:1016200084819B0185FD02C030E020E0B901C70143
:10163000FF90EF90DF90CF900895CF92DF92EF92DE
:10164000FF920F931F93CF93DF9300D000D0CDB7BD
:10165000DEB76C018B01DC011296ED90FC90FA82F2
:10166000E9827C836B83BE016F5F7F4F0E9414070A
:10167000009761F4F701E00FF11FCF010196D60149
:1016800013969C938E9312971082C7010F900F9020
:101690000F900F90DF91CF911F910F91FF90EF90DE
:1016A000DF90CF9008950F931F93CF93DF93EC01BA
:1016B00088819981009759F02A813B812617370745
:1016C00030F081E0DF91CF911F910F9108958B0150
:1016D0006F5F7F4F0E940A19009759F099838883A2
:1016E0001B830A832C813D81232B59F7FC01108237
:1016F000E8CF80E0E7CFFB0101900020E9F73197C8
:10170000AF01461B570BDC01ED91FC910280F38188
:10171000E02D0994CF93DF93BC0184E692E00E9410
:101720007B0BEC0164E571E084E692E00E947B0BA8
:101730008C0F9D1FDF91CF9108953F924F925F9242
:101740006F927F928F929F92AF92BF92CF92DF92D1
:10175000EF92FF920F931F93CF93DF938C015A0167
:10176000DC0111961C921E9213961C921E921297E7
:10177000FB01E080F180E114F10409F498C0D70185
:1017800016968D909C9017978114910409F487C048
:1017900014963C90F40101900020E9F731976F0115
:1017A000C818D908B501C8010E94D30AEC01892BD9
:1017B00009F451C037FC19C08C818F778C839F82CC
:1017C0008E82CE01A501B7010E94610C882309F425
:1017D00042C0F7018581882309F469C0F8E08F02CF
:1017E000C0011124E80EF91EC6CFB601A401C5013F
:1017F0000E9444079C01892B09F040C0D801ED915B
:10180000FC91309769F08581882309F43FC0B8E0E6
:101810008B02C00111248E0F9F1FC817D907A1F595
:101820008D81882309F445C028E08202C00111247B
:10183000C80FD91F309709F440C080E0209741F0CD
:10184000CE018E1B9F0B23E0959587952A95E1F796
:101850008583CD2BF1F080E0DF91CF911F910F9127
:10186000FF90EF90DF90CF90BF90AF909F908F90C0
:101870007F906F905F904F903F9008959C8190680B
:101880009C833F832E839DCFFC01BBCFF0E0E0E043
:10189000C7CFD8011396FC93EE931297DCCFB50116
:1018A000C8010E94D30A009709F08CCFD4CF81E001
:1018B000D3CFD0E0C0E0309759F6D801CD93DC9378
:1018C000C8CFCF92DF92EF92FF920F931F93CF93E7
:1018D000DF9300D000D000D0CDB7DEB78C01FB0184
:1018E0007A0124812F77253009F440C0A8F42330F1
:1018F00009F493C0D80114968C9114978078282B02
:1019000014962C9380819181A281B381F801808308
:101910009183A283B3833EC0DC0114969C911497FB
:10192000203209F190789064203421F714969C932A
:10193000149711961C921E9213961C921E92129747
:10194000A701BF01C80126960FB6F894DEBF0FBEEF
:10195000CDBFDF91CF911F910F91FF90EF90DF905E
:10196000CF900C949D0B90789062E0CFCB010E94B9
:101970009A0829833A834B835C836D837E838D81B0
:101980009E8129813A812115310531F4F801848144
:101990008078848381E02BC0CB80DC80019789F440
:1019A000D80114968C9114978078846014968C9347
:1019B000149711963C932E931396DC92CE92129725
:1019C000E9CFA901B601C7010E9444079C0150E07C
:1019D00040E0892B11F047EA56E0F80194819078B5
:1019E000452BA1F4948381E0232B09F480E0269613
:1019F0000FB6F894DEBF0FBECDBFDF91CF911F9120
:101A00000F91FF90EF90DF90CF90089595609483B1
:101A100031832083D382C282E6CFC280D3804081CB
:101A20005181B601C7010E9444079C01F8019481CD
:101A300090782115310539F09360948331832083A8
:101A4000D382C282A7CF9483D1CF0F931F93CF931A
:101A5000DF9361157105B9F08B01FC01C081D18163
:101A6000209799F06E817F81C8010E94D019892B3F
:101A700061F08D81882339F0F8E08F02C0011124D4
:101A8000C80FD91FEDCFD0E0C0E0CE01DF91CF91DC
:101A90001F910F9108959F92AF92BF92CF92DF92C4
:101AA000EF92FF920F931F93CF93DF93EC018B0183
:101AB000E42E0E94EE06D82E81110EC0F12C8F2D3F
:101AC000DF91CF911F910F91FF90EF90DF90CF901A
:101AD000BF90AF909F900895CE010E94C3068732B9
:101AE00009F42CC114F5823209F428C1CE010E94F8
:101AF000C306E82E5E01F1E1AF0EB11CF12C9A2C69
:101B0000CB2C8E2D0E94AB06882309F443C18FE3B2
:101B1000F81609F43FC11E86F394F501E1925F01C6
:101B2000CE010E94C306E82EECCF8B3509F44AC0E3
:101B30008B37E1F6F801848180788062848311829A
:101B4000108213821282EE2009F447C01E86CE0155
:101B50000E94EE06882309F4B1CF6DE7CE010E9402
:101B6000DD06F82E81114FC0CC24C394EA94E8819D
:101B7000F981828193819B838A83848195812281EB
:101B80003381821B930B9F838E831D821C82892B42
:101B900009F4C086CE010E94C306873209F460C0F2
:101BA000823209F45DC0CE010E94C306D82E0E9485
:101BB000AB068111AEC0CF5ADF4F83E090E099832E
:101BC00088837DCFF801848180788064848311824A
:101BD000108213821282E11007C0CF5ADF4F85E0D6
:101BE00090E0998388836ACF1E86CE010E94EE061C
:101BF000882309F463CF6DE5CE010E94DD06F82E3F
:101C0000EA94882311F0FD2C5ACF6F857889C8019A
:101C10000E94D30A009729F4CF5ADF4F84E090E066
:101C2000CECF4E2DBC01CE010E944B0D882309F46E
:101C300045CFCE010E94EE06882309F43FCF6DE523
:101C4000CE010E94DD068111DECF6CE2CE010E9442
:101C5000DD068111DACFCF5ADF4F83E090E0C1CFAC
:101C6000CE010E94AC07882309F429CFCE010E943F
:101C7000EE06882309F423CF6AE3CE010E94DD0635
:101C8000882309F498CFEA81FB818C819D81E80F3C
:101C9000F91F1082AC80BD806A817B81C8010E94DF
:101CA000250DBC01892BA9F4B501888199810E9479
:101CB0001D0B5C016F857889C8010E94D30AFC0165
:101CC000892B09F4A9CF848180688483B782A68296
:101CD000BF014E2DCE010E944B0D882309F4EFCE9B
:101CE000CE010E94EE06882309F4E9CE6DE7CE010D
:101CF0000E94DD06811120C06CE2CE010E94DD064B
:101D0000882309F458CFCE010E94EE0681112FCF0F
:101D1000D6CE1E866D2DCE010E949207CE010E9466
:101D2000C306D82E0E94AB068111F3CFE881F9815A
:101D30008085811171CF9ACFF82EC1CEE881F981CB
:101D4000828193819B838A838481958122813381DF
:101D5000821B930B9F838E831D821C82892B11F41F
:101D600081E08087CE010E94AC07F82E882309F419
:101D7000A5CECC80DD80B601888199810E941D0BA3
:101D8000F801248120782560248391838083D38285
:101D9000C28295CEFE01EF0DF11D118A898984372B
:101DA00081F4F801848180788660848381E0808377
:101DB000F4E0FF1609F427CFCF5ADF4F82E090E01E
:101DC00010CF863641F4F801848180788660848360
:101DD0001082F5E0EECF8E3621F484E0F812ECCFDD
:101DE00012CFB801892D9C2D0E94D508882309F4B3
:101DF00032CF09CF009711F00C94250D90E080E0D0
:101E00000895FC01248125FD0C94250D90E080E0CF
:101E100008952F923F924F925F926F927F928F928E
:101E20009F92AF92BF92CF92DF92EF92FF920F9369
:101E30001F93CF93DF93CDB7DEB7C05CD1400FB611
:101E4000F894DEBF0FBECDBF9E012F5F3F4F19013B
:101E50008FEC90E08C0F9D1F0E96C154DE4F99833E
:101E60008883CF5BD1403E0193E6691A9EEF790AE1
:101E70005FEC452E512C4C0E5D1E29E0420E511C8C
:101E800084E692E00E940604181619060CF005C1BB
:101E9000C355DE4F19821882CD5AD140C155DE4F4D
:101EA00019821882CF5AD140CF54DE4F198218823E
:101EB000C15BD14070E060E0CE0183559E4F0E942F
:101EC000530BC355DE4F28813981CD5AD140811142
:101ED00049C02115310519F0C9010E948118C35567
:101EE000DE4F19821882CD5AD140CF54DE4F19826D
:101EF0001882C15BD140C155DE4F19821882CF5A7A
:101F0000D1400E94A203CF54DE4F08811981C15BEA
:101F1000D14097FD33C08A30910581F189831A82BF
:101F20000F5F1F4FB801CE0183559E4F0E94530B88
:101F3000882339F3C355DE4F28813981CD5AD140EA
:101F4000CF54DE4F88819981C15BD140B101820FAE
:101F5000931F0E94D919CF54DE4F19830883C15BA8
:101F6000D140CFCFCF54DE4F19821882C15BD14010
:101F700063E571E0C9010E94D919C3CFC154DE4F96
:101F800088819981CF5BD140C153DF4F998388838A
:101F9000CF5CD040CF52DF4F99838883C15DD04062
:101FA000CD52DF4F79826882C35DD040CB52DF4F84
:101FB00079826882C55DD040C952DF4F1882C75D03
:101FC000D040C452DF4F1882CC5DD040C355DE4FA5
:101FD00088819981CD5AD1402FEC30E02C0F3D1FE4
:101FE000CB55DE4F39832883C55AD14028E0FE0106
:101FF000EB55FE4FD30101900D922A95E1F728E0B1
:10200000F301D10101900D922A95E1F719869B8782
:102010008A87800F911F9D878C871F868FEC90E0A9
:102020008C0F9D1F998B888B64961FAE1EAE649794
:102030004AE0B201C1010E944B0D64960EAD1FAD86
:1020400064970115110569F48E85882309F4CEC0C3
:10205000C452DF4F8881CC5DD04083FFC7C003E00E
:1020600010E084E291E00E946203F801EE0FFF1F8E
:10207000E85EFE4F859194910E94620364E571E0F1
:1020800084E692E00E947B0BC355DE4F88819981E4
:10209000CD5AD140009709F0A6C0C054DE4F0FB60C
:1020A000F894DEBF0FBECDBFDF91CF911F910F918E
:1020B000FF90EF90DF90CF90BF90AF909F908F9068
:1020C0007F906F905F904F903F902F90089567E9B9
:1020D00071E0C8010E94D019892B09F040C083EA41
:1020E00091E00E948A0B6EE671E0CE010A960E9492
:1020F000010FC954DE4F99838883C75BD140C75411
:10210000DE4F39822882C95BD140C954DE4F6881D5
:1021100079818A819B81C75BD1400E94080BCB01EA
:102120006BEB71E00E94FA0E0E94B80A67EC71E056
:102130000E94D019892B89F482E00E94A8050E9490
:102140007701C355DE4F88819981CD5AD1400097E0
:1021500009F496CE0E94811893CE81E0EECF6CEC0C
:1021600071E0C8010E94D019892B49F788ED91E0F0
:102170000E948A0B6EE671E0CE010A960E94010F62
:10218000C554DE4F99838883CB5BD140C354DE4F67
:1021900039822882CD5BD140C554DE4F6881798178
:1021A0008A819B81CB5BD1400E94080BCB0169EFF8
:1021B00071E00E94FA0E0E94B80A8C0166E072E09B
:1021C00084E692E00E947B0B0115110509F4B7CF5C
:1021D000B80184E692E00E947B0BB80181ED92E0A9
:1021E0000E947B0BACCF0E94811857CFCE010F9677
:1021F0009A8389839C838B832FEC30E02C0F3D1FC7
:102200003E832D8338872F8319861E86A101B9014D
:10221000675F7F4F05970E94610C66E172E0CE0117
:102220000A960E94010F0E94B80A8C0161E272E0D6
:102230000E94D019892B09F04ACF87E591E00E94CE
:102240008A0B6EE671E0CE010A960E94010FCD5412
:10225000DE4F99838883C35BD140CB54DE4F3982F4
:102260002882C55BD140CD54DE4F688179818A8157
:102270009B81C35BD1400E94080B4B0165E771E075
:10228000C4010E94FA0E0E94460A8C016CE771E0BC
:10229000C4010E94FA0E0E94460A6C0163E871E0D4
:1022A000C4010E94FA0E0E94460A7C016DE871E0AA
:1022B000C4010E94FA0E0E94460A0E191F097601F7
:1022C000E81AF90A0115110521F4E114F10409F4E1
:1022D00036CFC80117FF04C088279927801B910BB0
:1022E00058018F37910554F03EE7A32EB12C1016FC
:1022F000110624F021E8A22EBB24BA94C701F7FEF0
:1023000004C0882799278E199F0967018F37910587
:1023100054F09EE7C92ED12C1E141F0424F081E82E
:10232000C82EDD24DA946C2D8A2D0E948B050A19A3
:102330001B09EC18FD08C6CF1F920F920FB60F9223
:1023400011242F933F938F939F93AF93BF938091CB
:10235000600290916102A0916202B091630230919B
:10236000590223E0230F2D3758F50196A11DB11D09
:10237000209359028093600290936102A0936202BD
:10238000B093630280915A0290915B02A0915C022B
:10239000B0915D020196A11DB11D80935A029093E8
:1023A0005B02A0935C02B0935D02BF91AF919F91DD
:1023B0008F913F912F910F900FBE0F901F90189506
:1023C00026E8230F0296A11DB11DD2CF1F920F92B6
:1023D0000FB60F9211242F933F934F935F936F93F8
:1023E0007F938F939F93AF93BF93CF93EF93FF937D
:1023F000C091E1008091E100837F8093E100C3FF01
:102400000FC01092E90081E08093EB001092EC0085
:1024100082E38093ED0010925F0288E08093F000E9
:10242000C2FF1AC00E94770180915602882341F0B2
:1024300080915602815080935602811101C05D9AAD
:1024400080915E02882341F080915E0281508093EA
:102450005E02811101C0289AC4FF23C08091E2006E
:102460008E7E81608093E2008091E1008F7E809378
:10247000E100809157028E7E806180935702FF9128
:10248000EF91CF91BF91AF919F918F917F916F917C
:102490005F914F913F912F910F900FBE0F901F9022
:1024A0001895C0FFECCF8091E2008E7E8061809312
:1024B000E2008091E1008E7E8093E10080915702DE
:1024C0008E7E8160DACF1F920F920FB60F92112489
:1024D000CF92DF92EF92FF920F931F932F933F9330
:1024E0004F935F936F937F938F939F93AF93BF931C
:1024F000EF93FF93CF93DF93CDB7DEB76C97DEBF3B
:10250000CDBF1092E9008091E80083FF25C068E00C
:10251000CE0145960E94E40282EF8093E8008D8907
:1025200087FF39C09091E80090FFFCCF982F9076FC
:1025300009F034C19E894F89588D2F89F88C9111EB
:1025400031C0803861F5809158028093F10010927B
:10255000F1008EEF8093E8006C960FB6F894DEBF22
:102560000FBECDBFDF91CF91FF91EF91BF91AF91A2
:102570009F918F917F916F915F914F913F912F919B
:102580001F910F91FF90EF90DF90CF900F900FBEB3
:102590000F901F9018959EEF9093E800C7CF109270
:1025A000F100D5CF913059F48111D3CF413051058D
:1025B00081F6809158028D7F80935802CACF933064
:1025C00049F48111C6CF4130510519F68091580266
:1025D0008260F2CF953041F48091E80080FFFCCF1B
:1025E00020682093E300B5CF963009F0A9C00B8D89
:1025F0001C8D22E01092E9001092540210925302B6
:10260000F2122EC010925202109251020E94050343
:102610001F8299E09983FA8291E09E8390EA9887DD
:102620009AEF99872091530230915402275F3F4FD0
:102630003C832B838D831092E900109254021092F8
:102640005302109352020093510249E050E0BE0140
:102650006F5F7F4F80E00E9417020E94050379CFD1
:1026600010935202009351020E94F102DC01129673
:102670000D911C910115110509F451C1D801ED917D
:10268000FC910480F581E02DBE016B5E7F4FC80197
:102690000995009709F03EC1F80100851185EACF40
:1026A000F3E0FF120EC08F89882309F440C0823006
:1026B00061F440E862E18FE991E00E949514811194
:1026C00048CF81E28093EB0047CF813029F440E886
:1026D00067E087E991E0F1CF833099F70E94F1023A
:1026E000DC011296ED90FC908E010F5F1F4F680188
:1026F000E114F10479F0D701ED91FC910680F781A6
:10270000E02DB801C7010995080F111DF701E084FC
:10271000F184EECFD8011C92F60101900020E9F778
:102720003197BF016C197D0940E0C601C6CF61E851
:1027300071E0FB01449150E080E80E94170209CF4C
:10274000973009F4BECF983021F481E08093F100F6
:1027500000CF993009F0FDCE837009F0B2CFE1E0EF
:10276000F1E081E031E096E32191222371F0809342
:10277000E9003093EB00DF0111972C912093EC00DE
:102780009093ED008F5F873079F78EE78093EA00B2
:102790001092EA008F8980935F02DBCE8B8D9C8D37
:1027A0001092E90010925402109253029093520238
:1027B00080935102898D811192C08E899D89913AB1
:1027C00049F4813209F07DCF47E050E06BE071E0E1
:1027D00080E0B3CF913209F074CF833269F48F89EE
:1027E000988DB0E0A0E08093070190930801A0933A
:1027F0000901B0930A01ADCE803269F48091E800FE
:1028000082FFFCCF67E08BE091E00E94E4028BEF57
:102810008093E8009ECE823209F09BCE8F89809310
:102820001201EEEFFFE7859194918B3F9C4D51F1A2
:10283000E0E0F8E080910B0190910C01A0910D0176
:10284000B0910E01803B9440A105B105F1F4809157
:10285000120180FD1AC0EE3F8AE0F80789F587E78C
:1028600097E791838083809160008093550288E18F
:102870009BE00FB6F894A895809360000FBE9093EC
:10288000600067CEEEEFFAE0D5CF80819181873787
:10289000974709F05ECEA89580916000886180938B
:1028A00060008091550280936000EE3F2AE0F207BD
:1028B00089F08091FE0A9091FF0A9183808349CE2E
:1028C000808191818737980751F29093FF0A809316
:1028D000FE0AC5CF1092FF0A1092FE0A3ACE0E945D
:1028E000F102DC0112960D911C910115110509F4FC
:1028F000E8CED801ED91FC910190F081E02DBE0170
:102900006B5E7F4FC8010995811123CEF8010085C8
:102910001185EBCF181619060CF41BCED2CEF1E0C0
:10292000FF12BECE65E871E004CFEF92FF920F93E5
:102930001F93CF93DF93F82E192FE62E042F81E0FB
:10294000860F880F0E94E90183E00E94E901CF2DE4
:10295000D12FEC0EFD2EF11CCE15DF05B9F007FFCF
:1029600013C0FE0184910E94E901182F80E00E94AB
:10297000E901812321968111EFCFDF91CF911F9142
:102980000F91FF90EF9008958881EDCF81E0F5CF12
:10299000109267021092660288EE93E0A0E0B0E029
:1029A0008093680290936902A0936A02B0936B02CD
:1029B00089E291E090936502809364028FEF9FEF2C
:1029C00090937102809370021092C2028091BA02B9
:1029D000811113C01092B5021092B40282EB91E003
:1029E0009093B7028093B60286E390E09093B90289
:1029F0008093B80281E08093BA020E941905FC011D
:102A0000A385B485109709F04CC084EB92E09487BD
:102A10008387858596852091B8023091B902820F0F
:102A2000931F968785871092D4021092D3028BE36E
:102A300091E09093D2028093D1028091C9028111DA
:102A400013C01092C4021092C30288E692E09093E1
:102A5000C6028093C5028FE290E09093C8028093F3
:102A6000C70281E08093C9020E941905FC01A38579
:102A7000B485109709F583EC92E094878387858568
:102A800096852091C7023091C802820F931F9687C6
:102A9000858788EE91E09093DE028093DD020895B1
:102AA000DC018D919C9111970097D1F784EB92E016
:102AB0008D939C93AECFDC018D919C9111970097E3
:102AC000D1F783EC92E08D939C93D9CF789484B521
:102AD000826084BD84B5816084BD85B5826085BD1A
:102AE00085B5816085BD80916E00816080936E00A8
:102AF000109281008091810082608093810080919A
:102B0000810081608093810080918000816080934A
:102B1000800080919100826080939100809191006B
:102B200081608093910080919000816080939000FB
:102B30008091C10084608093C1008091C100826057
:102B40008093C1008091C10081608093C100809119
:102B5000C30081608093C3008091C0008260809335
:102B6000C0008091C20081608093C20080917A0091
:102B7000846080937A0080917A00826080937A00EA
:102B800080917A00816080937A0080917A008068D9
:102B900080937A0010925F021092580210925702AE
:102BA0008091D70081608093D70080EA8093D8001D
:102BB00089B5806189BD89B5826089BD09B400FE8F
:102BC000FDCF0E94D1018091D8008F7C80618093DD
:102BD000D8008091E000807F8093E0008091E10048
:102BE0008E7E8093E1008DE08093E200559A209ADA
:102BF0008FEF9FEF909371028093700288EE91E0C7
:102C00009093DE028093DD02C0E0D0E00E94090FC5
:102C10002097E1F30E940000F9CF0E944F1608F4BC
:102C200081E00895E89409C097FB3EF49095809563
:102C3000709561957F4F8F4F9F4F9923A9F0F92F82
:102C400096E9BB279395F695879577956795B79500
:102C5000F111F8CFFAF4BB0F11F460FF1BC06F5FE6
:102C60007F4F8F4F9F4F16C0882311F096E911C0F8
:102C7000772321F09EE8872F762F05C0662371F019
:102C800096E8862F70E060E02AF09A95660F771F2D
:102C9000881FDAF7880F9695879597F90895990F09
:102CA0000008550FAA0BE0E8FEEF16161706E80716
:102CB000F907C0F012161306E407F50798F0621B37
:102CC000730B840B950B39F40A2661F0232B242B0C
:102CD000252B21F408950A2609F4A140A6958FEF2B
:102CE000811D811D08950E9486160C94F7160E947E
:102CF000E91638F00E94F01620F0952311F00C949C
:102D0000E0160C94E61611240C942B170E94081759
:102D100070F3959FC1F3950F50E0551F629FF0012E
:102D2000729FBB27F00DB11D639FAA27F00DB11D47
:102D3000AA1F649F6627B00DA11D661F829F2227D0
:102D4000B00DA11D621F739FB00DA11D621F839F57
:102D5000A00D611D221F749F3327A00D611D231F2D
:102D6000849F600D211D822F762F6A2F11249F577B
:102D700050409AF0F1F088234AF0EE0FFF1FBB1F7E
:102D8000661F771F881F91505040A9F79E3F51053D
:102D900080F00C94E0160C942B175F3FE4F3983E00
:102DA000D4F3869577956795B795F795E7959F5FE7
:102DB000C1F7FE2B880F911D9695879597F9089579
:102DC00097F99F6780E870E060E008959FEF80ECDE
:102DD000089500240A941616170618060906089581
:102DE00000240A9412161306140605060895092EE7
:102DF0000394000C11F4882352F0BB0F40F4BF2B56
:102E000011F460FF04C06F5F7F4F8F4F9F4F089595
:102E100057FD9058440F551F59F05F3F71F047958B
:102E2000880F97FB991F61F09F3F79F08795089570
:102E3000121613061406551FF2CF4695F1DF08C08F
:102E4000161617061806991FF1CF869571056105AC
:102E500008940895E894BB2766277727CB0197F954
:102E600008950E947317A59F900DB49F900DA49F85
:102E7000800D911D112408952F923F924F925F92E1
:102E80006F927F928F929F92AF92BF92CF92DF927A
:102E9000EF92FF920F931F93CF93DF93CDB7DEB7DF
:102EA000CA1BDB0B0FB6F894DEBF0FBECDBF099473
:102EB0002A88398848885F846E847D848C849B84CA
:102EC000AA84B984C884DF80EE80FD800C811B81D8
:102ED000AA81B981CE0FD11D0FB6F894DEBF0FBE07
:102EE000CDBFED010895A29FB001B39FC001A39F84
:102EF000700D811D1124911DB29F700D811D112433
:102F0000911D08950E9489176894B1110C942B1794
:102F100008950E94101788F09F5798F0B92F9927AD
:102F2000B751B0F0E1F0660F771F881F991F1AF0B4
:102F3000BA95C9F714C0B13091F00E942A17B1E0D8
:102F400008950C942A17672F782F8827B85F39F0D7
:102F5000B93FCCF3869577956795B395D9F73EF44D
:102F600090958095709561957F4F8F4F9F4F0895F5
:102F70000E944F1608F48FEF0895A1E21A2EAA1BA3
:102F8000BB1BFD010DC0AA1FBB1FEE1FFF1FA21719
:102F9000B307E407F50720F0A21BB30BE40BF50B16
:102FA000661F771F881F991F1A9469F7609570959F
:102FB000809590959B01AC01BD01CF010895EE0F66
:102FC000FF1F0590F491E02D09940F931F93CF9369
:102FD000DF938230910510F482E090E0E091E1020D
:102FE000F091E20230E020E0B0E0A0E0309799F408
:102FF0002115310509F44AC0281B390B243031054D
:10300000D8F58A819B816115710589F1FB01938354
:103010008283FE0111C040815181028113814817D2
:103020005907E0F04817590799F4109761F0129684
:103030000C93129713961C933296CF01DF91CF9188
:103040001F910F9108950093E1021093E202F4CFD3
:103050002115310551F04217530738F0A901DB0162
:103060009A01BD01DF01F801C1CFEF01F9CF9093C3
:10307000E2028093E102CDCFFE01E20FF31F8193C4
:1030800091932250310939832883D7CF2091DF02D1
:103090003091E002232B41F420911501309116016B
:1030A0003093E0022093DF0220911301309114014C
:1030B0002115310541F42DB73EB7409117015091CC
:1030C0001801241B350BE091DF02F091E002E217BA
:1030D000F307A0F42E1B3F0B2817390778F0AC013B
:1030E0004E5F5F4F2417350748F04E0F5F1F509318
:1030F000E0024093DF02819391939FCFF0E0E0E004
:103100009CCFCF93DF930097E9F0FC0132971382B5
:103110001282A091E102B091E202ED0130E020E0E4
:103120001097A1F420813181820F931F2091DF023B
:103130003091E0022817390709F061C0F093E002EE
:10314000E093DF02DF91CF910895EA01CE17DF0708
:10315000E8F54A815B819E0141155105B1F7E9010E
:10316000FB83EA8349915991C40FD51FEC17FD07E2
:1031700061F4808191810296840F951FE901998302
:103180008883828193819B838A83F0E0E0E01296BA
:103190008D919C9113970097B9F52D913C911197C2
:1031A000CD010296820F931F2091DF023091E00241
:1031B0002817390739F6309751F51092E20210922C
:1031C000E102B093E002A093DF02BCCFD383C283BD
:1031D00040815181840F951FC817D90761F44E5F54
:1031E0005F4F88819981480F591F518340838A819D
:1031F0009B81938382832115310509F0B0CFF09331
:10320000E202E093E1029ECFFD01DC01C0CF138218
:103210001282D7CFB0E0A0E0E0E1F9E10C943E17D4
:103220008C01009751F4CB010E94E5178C01C80175
:10323000CDB7DEB7E0E10C945A17FC01E60FF71F9B
:103240009C0122503109E217F30708F49DC0D9010F
:10325000CD91DC911197C617D70798F0C530D105ED
:1032600030F3CE0104978617970708F3C61BD70BD8
:103270002297C193D1936D937C93CF010E948118C3
:10328000D6CF5B01AC1ABD0A4C018C0E9D1EA091DD
:10329000E102B091E202512C412CF12CE12C10976B
:1032A00031F58091DF029091E0028815990509F0CF
:1032B0005CC04616570608F058C0809113019091E3
:1032C0001401009741F48DB79EB7409117015091BA
:1032D0001801841B950BE817F90708F055C0F09307
:1032E000E002E093DF02F90171836083A0CF8D914A
:1032F0009C91119712966C90129713967C9013974D
:10330000A815B90559F56C0142E0C40ED11CCA14C8
:10331000DB0420F1AC014A195B09DA01129615971A
:1033200080F06282738251834083D9016D937C93D4
:10333000E114F10471F0D7011396FC93EE93129708
:1033400076CF22968C0F9D1FF90191838083F30124
:10335000EFCFF093E202E093E10269CF48165906FD
:1033600008F42C017D01D3019ACFCB010E94E5170F
:103370007C01009749F0AE01B8010E94C719C8014D
:103380000E948118870153CF10E000E050CFFB016D
:10339000DC0102C001900D9241505040D8F70895D1
:1033A000FB01DC018D91019080190110D9F3990B7B
:1033B0000895FB01DC0101900D920020E1F70895D2
:0433C000F894FFCFAF
:1033C40000C18081000000FFFFFFFF00E10000005A
:1033D4000000000000E3028000000000002004CE92
:1033E4000493047804000000004C0336037F037D3B
:1033F4000306048403E20300000000E005B405A80A
:1034040006A7062F2F22225C5C6208660C6E0A72E5
:103414000D7409000D0A00476F742061206D6F75EB
:103424007365206D6F7665206576656E74007061D6
:1034340072616D73006E6578745F78006E65787480
:103444005F790063757272656E745F78006375727C
:1034540072656E745F79006D6F7573655F636C6917
:10346400636B00476F742061206D6F757365206313
:103474006C69636B206576656E7400726967687445
:103484005F636C69636B0074727565007479706551
:103494005F737472696E6700476F742061206B6597
:1034A40079626F61726420747970652073747269D3
:1034B4006E67206576656E7400696E7075745F73EF
:1034C4007472696E6700547970696E6720737472E0
:1034D400696E673A20006576656E745F747970650D
:0C34E400006D6F7573655F6D6F7665009D
:00000001FF
